{"abi":[{"type":"constructor","inputs":[{"name":"entryFee","type":"uint256","internalType":"uint256"},{"name":"interval","type":"uint256","internalType":"uint256"},{"name":"subscriptionId","type":"uint256","internalType":"uint256"},{"name":"hashKey","type":"bytes32","internalType":"bytes32"},{"name":"vrfCoordinator","type":"address","internalType":"address"},{"name":"callbackGasLimit","type":"uint32","internalType":"uint32"}],"stateMutability":"nonpayable"},{"type":"function","name":"acceptOwnership","inputs":[],"outputs":[],"stateMutability":"nonpayable"},{"type":"function","name":"checkUpkeep","inputs":[{"name":"","type":"bytes","internalType":"bytes"}],"outputs":[{"name":"upkeepNeeded","type":"bool","internalType":"bool"},{"name":"performData","type":"bytes","internalType":"bytes"}],"stateMutability":"view"},{"type":"function","name":"enterRaffle","inputs":[],"outputs":[],"stateMutability":"payable"},{"type":"function","name":"getBalance","inputs":[],"outputs":[{"name":"","type":"uint256","internalType":"uint256"}],"stateMutability":"view"},{"type":"function","name":"getEntryFee","inputs":[],"outputs":[{"name":"","type":"uint256","internalType":"uint256"}],"stateMutability":"view"},{"type":"function","name":"getInterval","inputs":[],"outputs":[{"name":"","type":"uint256","internalType":"uint256"}],"stateMutability":"view"},{"type":"function","name":"getLastRequestId","inputs":[],"outputs":[{"name":"","type":"uint256","internalType":"uint256"}],"stateMutability":"view"},{"type":"function","name":"getLastTimestamp","inputs":[],"outputs":[{"name":"","type":"uint256","internalType":"uint256"}],"stateMutability":"view"},{"type":"function","name":"getLastWinner","inputs":[],"outputs":[{"name":"","type":"address","internalType":"address"}],"stateMutability":"view"},{"type":"function","name":"getPlayerAtIndex","inputs":[{"name":"index","type":"uint256","internalType":"uint256"}],"outputs":[{"name":"","type":"address","internalType":"address"}],"stateMutability":"view"},{"type":"function","name":"getPlayersCount","inputs":[],"outputs":[{"name":"","type":"uint256","internalType":"uint256"}],"stateMutability":"view"},{"type":"function","name":"getRaffleState","inputs":[],"outputs":[{"name":"","type":"uint8","internalType":"enum Raffle.RaffleState"}],"stateMutability":"view"},{"type":"function","name":"owner","inputs":[],"outputs":[{"name":"","type":"address","internalType":"address"}],"stateMutability":"view"},{"type":"function","name":"performUpkeep","inputs":[{"name":"","type":"bytes","internalType":"bytes"}],"outputs":[],"stateMutability":"nonpayable"},{"type":"function","name":"rawFulfillRandomWords","inputs":[{"name":"requestId","type":"uint256","internalType":"uint256"},{"name":"randomWords","type":"uint256[]","internalType":"uint256[]"}],"outputs":[],"stateMutability":"nonpayable"},{"type":"function","name":"s_vrfCoordinator","inputs":[],"outputs":[{"name":"","type":"address","internalType":"contract IVRFCoordinatorV2Plus"}],"stateMutability":"view"},{"type":"function","name":"setCoordinator","inputs":[{"name":"_vrfCoordinator","type":"address","internalType":"address"}],"outputs":[],"stateMutability":"nonpayable"},{"type":"function","name":"transferOwnership","inputs":[{"name":"to","type":"address","internalType":"address"}],"outputs":[],"stateMutability":"nonpayable"},{"type":"event","name":"CoordinatorSet","inputs":[{"name":"vrfCoordinator","type":"address","indexed":false,"internalType":"address"}],"anonymous":false},{"type":"event","name":"OwnershipTransferRequested","inputs":[{"name":"from","type":"address","indexed":true,"internalType":"address"},{"name":"to","type":"address","indexed":true,"internalType":"address"}],"anonymous":false},{"type":"event","name":"OwnershipTransferred","inputs":[{"name":"from","type":"address","indexed":true,"internalType":"address"},{"name":"to","type":"address","indexed":true,"internalType":"address"}],"anonymous":false},{"type":"event","name":"Raffle__PlayerEnteredRaffle","inputs":[{"name":"player","type":"address","indexed":true,"internalType":"address"}],"anonymous":false},{"type":"event","name":"Raffle__UpkeepPerformed","inputs":[{"name":"requestId","type":"uint256","indexed":true,"internalType":"uint256"}],"anonymous":false},{"type":"event","name":"Raffle__WinnerPicked","inputs":[{"name":"player","type":"address","indexed":true,"internalType":"address"}],"anonymous":false},{"type":"error","name":"OnlyCoordinatorCanFulfill","inputs":[{"name":"have","type":"address","internalType":"address"},{"name":"want","type":"address","internalType":"address"}]},{"type":"error","name":"OnlyOwnerOrCoordinator","inputs":[{"name":"have","type":"address","internalType":"address"},{"name":"owner","type":"address","internalType":"address"},{"name":"coordinator","type":"address","internalType":"address"}]},{"type":"error","name":"Raffle__InsufficientEntryFee","inputs":[]},{"type":"error","name":"Raffle__InvalidIndex","inputs":[{"name":"totalPlayers","type":"uint256","internalType":"uint256"},{"name":"index","type":"uint256","internalType":"uint256"}]},{"type":"error","name":"Raffle__InvalidRequestId","inputs":[{"name":"lastRequestId","type":"uint256","internalType":"uint256"},{"name":"requestId","type":"uint256","internalType":"uint256"}]},{"type":"error","name":"Raffle__NotOpen","inputs":[]},{"type":"error","name":"Raffle__NotProcessing","inputs":[]},{"type":"error","name":"Raffle__TransferFailed","inputs":[{"name":"recepient","type":"address","internalType":"address"}]},{"type":"error","name":"Raffle__UpkeepNotNeeded","inputs":[{"name":"isRaffleRunning","type":"bool","internalType":"bool"},{"name":"hasEnoughTimePassed","type":"bool","internalType":"bool"},{"name":"hasBalance","type":"bool","internalType":"bool"},{"name":"hasPlayers","type":"bool","internalType":"bool"}]},{"type":"error","name":"ZeroAddress","inputs":[]}],"bytecode":{"object":"0x61012060405234801561001157600080fd5b506040516200130b3803806200130b833981016040819052610032916101d2565b8133806000816100895760405162461bcd60e51b815260206004820152601860248201527f43616e6e6f7420736574206f776e657220746f207a65726f000000000000000060448201526064015b60405180910390fd5b600080546001600160a01b0319166001600160a01b03848116919091179091558116156100b9576100b981610129565b5050506001600160a01b0381166100e35760405163d92e233d60e01b815260040160405180910390fd5b600280546001600160a01b0319166001600160a01b03929092169190911790556080959095525060a0929092524260045560c05260e05263ffffffff1661010052610248565b336001600160a01b038216036101815760405162461bcd60e51b815260206004820152601760248201527f43616e6e6f74207472616e7366657220746f2073656c660000000000000000006044820152606401610080565b600180546001600160a01b0319166001600160a01b0383811691821790925560008054604051929316917fed8889f560326eb138920d842192f0eb3dd22b4f139c87a2c57538e05bae12789190a350565b60008060008060008060c087890312156101eb57600080fd5b86516020880151604089015160608a015160808b0151939950919750955093506001600160a01b038116811461022057600080fd5b60a088015190925063ffffffff8116811461023a57600080fd5b809150509295509295509295565b60805160a05160c05160e051610100516110706200029b60003960006105b30152600061055b0152600061057e0152600081816102930152610a940152600081816102fb015261041c01526110706000f3fe6080604052600436106101095760003560e01c806379ba5097116100955780639eccacf6116100645780639eccacf6146102b7578063a76594bf146102d7578063e586a4f0146102ec578063f2fde38b1461031f578063f88649a11461033f57600080fd5b806379ba5097146102315780638da5cb5b146102465780638ea981171461026457806391ad27b41461028457600080fd5b80631fe543e3116100dc5780631fe543e3146101a45780632cfcc539146101c657806337899770146101ce5780634585e33b146101e35780636e04ff0d1461020357600080fd5b80630bcd484a1461010e578063115cbaf51461014b57806312065fe01461017257806319c2b4c31461018f575b600080fd5b34801561011a57600080fd5b5061012e610129366004610cbd565b61035d565b6040516001600160a01b0390911681526020015b60405180910390f35b34801561015757600080fd5b50600654600160a01b900460ff166040516101429190610cec565b34801561017e57600080fd5b50475b604051908152602001610142565b34801561019b57600080fd5b50600554610181565b3480156101b057600080fd5b506101c46101bf366004610d14565b6103c2565b005b6101c4610412565b3480156101da57600080fd5b50600454610181565b3480156101ef57600080fd5b506101c46101fe366004610d93565b6104c9565b34801561020f57600080fd5b5061022361021e366004610e1b565b6106ab565b604051610142929190610f12565b34801561023d57600080fd5b506101c46106fe565b34801561025257600080fd5b506000546001600160a01b031661012e565b34801561027057600080fd5b506101c461027f366004610f35565b6107a8565b34801561029057600080fd5b507f0000000000000000000000000000000000000000000000000000000000000000610181565b3480156102c357600080fd5b5060025461012e906001600160a01b031681565b3480156102e357600080fd5b50600354610181565b3480156102f857600080fd5b507f0000000000000000000000000000000000000000000000000000000000000000610181565b34801561032b57600080fd5b506101c461033a366004610f35565b61089a565b34801561034b57600080fd5b506006546001600160a01b031661012e565b6003546000908210610394576003546040516277938360e31b81526004810191909152602481018390526044015b60405180910390fd5b600382815481106103a7576103a7610f65565b6000918252602090912001546001600160a01b031692915050565b6002546001600160a01b031633146104025760025460405163073e64fd60e21b81523360048201526001600160a01b03909116602482015260440161038b565b61040d8383836108ae565b505050565b61041a610a2b565b7f000000000000000000000000000000000000000000000000000000000000000034101561045b5760405163af4eda6160e01b815260040160405180910390fd5b6003805460018101825560009182527fc2575a0e9e593c00f959f8c92f12db2869c3395a3b0502d05e2516446f71f85b0180546001600160a01b0319163390811790915560405190917fd532cc88bb6a46c995fbf09ef31fb7572111dca0011fbe957b10484e272e7f0291a2565b6000806000806104d7610a6b565b935093509350935060008480156104eb5750835b80156104f45750825b80156104fd5750815b90508061053957604051630820be0b60e31b8152851515600482015284151560248201528315156044820152821515606482015260840161038b565b6006805460ff60a01b1916600160a01b1790556002546040805160c0810182527f000000000000000000000000000000000000000000000000000000000000000081527f000000000000000000000000000000000000000000000000000000000000000060208083019190915260038284015263ffffffff7f00000000000000000000000000000000000000000000000000000000000000001660608301526001608083015282519081019092526000808352926001600160a01b031691639b1c385e919060a082019061060c90610ad6565b8152506040518263ffffffff1660e01b815260040161062b9190610f7b565b6020604051808303816000875af115801561064a573d6000803e3d6000fd5b505050506040513d601f19601f8201168201806040525081019061066e9190610fd8565b600581905560405190915081907f6d1b018d61022026689ed456b9097b584784614dd6776ed1c7d98f6024efd4bc90600090a25050505050505050565b600060606000806000806106bd610a6b565b93509350935093508380156106cf5750825b80156106d85750815b80156106e15750805b604080516020810190915260008152909890975095505050505050565b6001546001600160a01b031633146107515760405162461bcd60e51b815260206004820152601660248201527526bab9ba10313290383937b837b9b2b21037bbb732b960511b604482015260640161038b565b60008054336001600160a01b0319808316821784556001805490911690556040516001600160a01b0390921692909183917f8be0079c531659141344cd1fd0a4f28419497f9722a3daafe3b4186f6b6457e091a350565b6000546001600160a01b031633148015906107ce57506002546001600160a01b03163314155b1561081f57336107e66000546001600160a01b031690565b60025460405163061db9c160e01b81526001600160a01b039384166004820152918316602483015291909116604482015260640161038b565b6001600160a01b0381166108465760405163d92e233d60e01b815260040160405180910390fd5b600280546001600160a01b0319166001600160a01b0383169081179091556040519081527fd1a6a14209a385a964d036e404cb5cfb71f4000cdb03c9366292430787261be69060200160405180910390a150565b6108a2610b47565b6108ab81610b9a565b50565b60055483146108de57600554604051630d86cc9b60e21b815260048101919091526024810184905260440161038b565b600354600090838383816108f4576108f4610f65565b905060200201356109059190610ff1565b90506003818154811061091a5761091a610f65565b600091825260208083209190910154600680546001600160a81b0319166001600160a01b039092169190911790556040805192835290820190819052905161096491600391610c43565b50426004556006546040516001600160a01b03909116907fc4f66fdc5d5cb423ab0e5f082d6f9de2b6c9d481da703fffc7b6ab257e4b0c8790600090a26006546040516000916001600160a01b03169047908381818185875af1925050503d80600081146109ee576040519150601f19603f3d011682016040523d82523d6000602084013e6109f3565b606091505b5050905080610a245760065460405163017796c560e21b81526001600160a01b03909116600482015260240161038b565b5050505050565b6000600654600160a01b900460ff166001811115610a4b57610a4b610cd6565b14610a695760405163050955c760e21b815260040160405180910390fd5b565b600080808080600654600160a01b900460ff166001811115610a8f57610a8f610cd6565b1493507f000000000000000000000000000000000000000000000000000000000000000060045442610ac19190611013565b60035495969110944715159450151592509050565b60607f92fd13387c7fe7befbc38d303d6468778fb9731bc4583f17d92989c6fcfdeaaa82604051602401610b0f91511515815260200190565b60408051601f198184030181529190526020810180516001600160e01b03166001600160e01b03199093169290921790915292915050565b6000546001600160a01b03163314610a695760405162461bcd60e51b815260206004820152601660248201527527b7363c9031b0b63630b1363290313c9037bbb732b960511b604482015260640161038b565b336001600160a01b03821603610bf25760405162461bcd60e51b815260206004820152601760248201527f43616e6e6f74207472616e7366657220746f2073656c66000000000000000000604482015260640161038b565b600180546001600160a01b0319166001600160a01b0383811691821790925560008054604051929316917fed8889f560326eb138920d842192f0eb3dd22b4f139c87a2c57538e05bae12789190a350565b828054828255906000526020600020908101928215610c98579160200282015b82811115610c9857825182546001600160a01b0319166001600160a01b03909116178255602090920191600190910190610c63565b50610ca4929150610ca8565b5090565b5b80821115610ca45760008155600101610ca9565b600060208284031215610ccf57600080fd5b5035919050565b634e487b7160e01b600052602160045260246000fd5b6020810160028310610d0e57634e487b7160e01b600052602160045260246000fd5b91905290565b600080600060408486031215610d2957600080fd5b83359250602084013567ffffffffffffffff80821115610d4857600080fd5b818601915086601f830112610d5c57600080fd5b813581811115610d6b57600080fd5b8760208260051b8501011115610d8057600080fd5b6020830194508093505050509250925092565b60008060208385031215610da657600080fd5b823567ffffffffffffffff80821115610dbe57600080fd5b818501915085601f830112610dd257600080fd5b813581811115610de157600080fd5b866020828501011115610df357600080fd5b60209290920196919550909350505050565b634e487b7160e01b600052604160045260246000fd5b600060208284031215610e2d57600080fd5b813567ffffffffffffffff80821115610e4557600080fd5b818401915084601f830112610e5957600080fd5b813581811115610e6b57610e6b610e05565b604051601f8201601f19908116603f01168101908382118183101715610e9357610e93610e05565b81604052828152876020848701011115610eac57600080fd5b826020860160208301376000928101602001929092525095945050505050565b6000815180845260005b81811015610ef257602081850181015186830182015201610ed6565b506000602082860101526020601f19601f83011685010191505092915050565b8215158152604060208201526000610f2d6040830184610ecc565b949350505050565b600060208284031215610f4757600080fd5b81356001600160a01b0381168114610f5e57600080fd5b9392505050565b634e487b7160e01b600052603260045260246000fd5b60208152815160208201526020820151604082015261ffff60408301511660608201526000606083015163ffffffff80821660808501528060808601511660a0850152505060a083015160c080840152610f2d60e0840182610ecc565b600060208284031215610fea57600080fd5b5051919050565b60008261100e57634e487b7160e01b600052601260045260246000fd5b500690565b8181038181111561103457634e487b7160e01b600052601160045260246000fd5b9291505056fea26469706673582212204c8f93ac00ee5f6bbeee7d4db9bc9492c71a6da784bad662aa37db399564b7d264736f6c63430008130033","linkReferences":{}},"methodIdentifiers":{"acceptOwnership()":"79ba5097","checkUpkeep(bytes)":"6e04ff0d","enterRaffle()":"2cfcc539","getBalance()":"12065fe0","getEntryFee()":"e586a4f0","getInterval()":"91ad27b4","getLastRequestId()":"19c2b4c3","getLastTimestamp()":"37899770","getLastWinner()":"f88649a1","getPlayerAtIndex(uint256)":"0bcd484a","getPlayersCount()":"a76594bf","getRaffleState()":"115cbaf5","owner()":"8da5cb5b","performUpkeep(bytes)":"4585e33b","rawFulfillRandomWords(uint256,uint256[])":"1fe543e3","s_vrfCoordinator()":"9eccacf6","setCoordinator(address)":"8ea98117","transferOwnership(address)":"f2fde38b"},"id":44}